:0300000002006695
:0C006600787FE4F6D8FD7581180200AD2B
:0D0250003F065B4F666D7D077F6F76793846
:0602710001080001090074
:10023100E4FD7FA0120269750DFFAD0D7F80020202
:010241006953
:10021F00538EFB75D71875D6FC438E1043AF04D29F
:02022F00AF22FC
:10000300E4FEE5B0540FFFE50814601114602C24DE
:1000130002702EEF640F60297508018024EF640FCE
:10002300601CBF0E027E07BF0D027E06BF0B027E61
:1000330005BF07027E047508028006BF0F03E4F5BF
:0300430008AF06FD
:010046002297
:0B025D00E5B0F4FF650B5FF50C8F0BA4
:010268002273
:10020C00E517C3940A400BE4F517120003BF040270
:02021C00050AD1
:01021E0022BD
:10012F00E517C3940A402AE4F51712025DE50C3077
:10013F00E302050AE50C30E202150AE50C30E10690
:10014F00740A250AF50AE50C30E00674F6250AF55F
:02015F000A2272
:10016100E50A75F0648490025093F50EE50A75F086
:100171000A8475F00A84E5F093F50FE50A75F00A33
:1001810084E5F093F510E4F511F512F513F514F586
:02019100152235
:0E02420012023112021F12016112012F80F808
:10019300E4FD7FC0120269740E2509F8E6F4FD7FC1
:1001A300E0120269AF097401A807088002C333D8BB
:0E01B300FCFD7FC0120269E509045407F5093E
:0101C100221B
:030063000200F2A6
:1000F200C0E0C0F0C083C082C0D075D000C000C0D4
:1001020001C002C003C004C005C006C00705171223
:100112000193D007D006D005D004D003D002D0017D
:0D012200D000D0D0D082D083D0F0D0E03219
:10004700E4FDFCC3ED9FEC9E500F790C7BA9DBFE12
:09005700D9FC0DBD00010C80EA8A
:01006000227D
:1001F600E4FDFCC3ED9FEC9E500B000000000DBD1E
:0502060000010C80EE78
:01020B0022D0
:0A01C200E4FDFCC3ED9FEC9E500F1E
:0801CC00000075181BD518FD99
:0701D4000DBD00010C80EAE3
:0101DB002201
:1001DC00E4FDFCC3ED9FEC9E500F79027B27DBFE08
:0901EC00D9FC0DBD00010C80EAF4
:0101F50022E7
:080269008D808FA0E4F5A022B6
:10007200020242E493A3F8E493A34003F68001F260
:1000820008DFF48029E493A3F85407240CC8C3338F
:10009200C4540F4420C8834004F456800146F6DF5E
:1000A200E4800B0102040810204080900271E47E7B
:1000B200019360BCA3FF543F30E509541FFEE49353
:1000C200A360010ECF54C025E060A840B8E493A31A
:1000D200FAE493A3F8E493A3C8C582C8CAC583CA45
:1000E200F0A3C8C582C8CAC583CADFE9DEE780BEFD
:010277000086
:00000001FF
