:030000000201D822
:0C01D800787FE4F6D8FD7581100201E488
:1001C700E4FD7FA01201EC750CFFAD0C7F800201EE
:0101D700EC3B
:10005100538EFB75D71875D6FC438E1043AF04D26F
:02006100AF22CC
:10006600C3E50E94F4E50D9401401DE4F50DF50E7F
:10007600E50C5401F45401FFE50C54FE4FF50CADAC
:100086000C7F801201EC0508C3E50B9464E50A9425
:10009600005003020140E4F50AF50BAF0904A80776
:1000A600088002C313D8FCF4540133333354F8FFE9
:1000B600E50C54F74FF50CAF097402A80708800247
:1000C600C313D8FCF45401C454F0FFE50C54EF4FAD
:1000D600F50CAF097404A807088002C313D8FCF412
:1000E6005401C43354E0FFE50C54DF4FF50CAF095F
:1000F6007408A807088002C313D8FCF45401C4335B
:100106003354C0FFE50C54BF4FF50CAF097410A86B
:1001160007088002C313D8FCF45401C433333354A4
:1001260080FFE50C547F4FF50CAD0C7F801201EC7F
:0B0136000509E509B40503E4F5092202
:10014100E508B40A0A430F10AD0F7FA01201ECE5D8
:1001510008B4140DE4F508530FEFAD0F7FA01201A1
:02016100EC228E
:0801E4001201C712005180FE58
:0300630002000395
:10000300C0E0C0F0C083C082C0D075D000C000C0C3
:1000130001C002C003C004C005C006C007050EE549
:100023000E7002050D050BE50B7002050A12006642
:10003300120141D007D006D005D004D003D002D09E
:0E00430001D000D0D0D082D083D0F0D0E032F7
:10016300E4FDFCC3ED9FEC9E500F790C7BA9DBFEF5
:09017300D9FC0DBD00010C80EA6D
:01017C002260
:1001B100E4FDFCC3ED9FEC9E500B000000000DBD63
:0501C10000010C80EEBE
:0101C6002216
:0A017D00E4FDFCC3ED9FEC9E500F63
:08018700000075101BD510FDEE
:07018F000DBD00010C80EA28
:010196002246
:10019700E4FDFCC3ED9FEC9E500F79027B27DBFE4D
:0901A700D9FC0DBD00010C80EA39
:0101B000222C
:0801EC008D808FA0E4F5A02234
:00000001FF
