:0300000002006695
:0C006600787FE4F6D8FD7581220200AD21
:1001360012093F065B4F666D7D077F6F777C395EE0
:04014600797176381D
:10012100E4FD7FA012015D7DFF7F8012015D7DFFF7
:050131007FE002015D0A
:10003E0085191B85171C851A1D851A1E85091FE437
:07004E00F520F521F5222247
:1000F200E4FD7FC012015D741B2508F8E6F4FD7F64
:10010200E012015DAF087401A807088002C333D86A
:0E011200FCFD7FC012015DE508045407F508EE
:0101200022BC
:0B00550012012112014B12003E80FB43
:0300630002000395
:10000300C0E0C0F0C083C082C0D075D000C000C0C3
:1000130001C002C003C004C005C006C0071200F23D
:10002300D007D006D005D004D003D002D001D00031
:0B003300D0D0D082D083D0F0D0E032DB
:08015D008D808FA0E4F5A022C3
:10014B00538EFB75D71875D6FC438E1043AF04D274
:02015B00AF22D1
:10007200020055E493A3F8E493A34003F68001F24F
:1000820008DFF48029E493A3F85407240CC8C3338F
:10009200C4540F4420C8834004F456800146F6DF5E
:1000A200E4800B0102040810204080900136E47EB7
:1000B200019360BCA3FF543F30E509541FFEE49353
:1000C200A360010ECF54C025E060A840B8E493A31A
:1000D200FAE493A3F8E493A3C8C582C8CAC583CA45
:1000E200F0A3C8C582C8CAC583CADFE9DEE780BEFD
:01014A0000B4
:00000001FF
