:100000000200DFE4FDFCC3ED9FEC9E500F790C7BFA
:10001000A9DBFED9FC0DBD00010C80EA22E4FDFC49
:10002000C3ED9FEC9E500F0000750B1BD50BFD0D13
:10003000BD00010C80EA22E4FDFCC3ED9FEC9E5064
:100040000F79027B27DBFED9FC0DBD00010C80EA95
:1000500022538EFB75D71875D6FC438E1043AF0420
:10006000D2AF22020066C0E0C0F0C083C082C0D020
:1000700075D000C000C001C002C003C004C005C0EC
:1000800006C0070509E509C394C84022750900AFF9
:1000900008EFC413135401F45401C4333354C0FFA4
:1000A000E50854BF4FF508AD087FA01200F3D00754
:1000B000D006D005D004D003D002D001D000D0D0DB
:1000C000D082D083D0F0D0E032E4FDFCC3ED9FECD1
:1000D0009E500B000000000DBD00010C80EE227848
:1000E0007FE4F6D8FD75810B0200EB1200FB1200D5
:1000F0005180FE8D808FA0E4F5A022E4FD7FA00258
:0201000000F30A
:00000001FF
