:10000000020214AC07AA05E41203CAEB75F00A84D5
:10001000C454F0FFEB75F00A84EF25F01203CAEA2E
:1000200075F00A84C454F0FFEA75F00A84EF25F0F5
:10003000FD7F821203CDEC75F00A84C454F0FFEC0E
:1000400075F00A84EF25F0FD7F841203CD7D807F5B
:100050008E0203CD8D80E5A0541F4FF5A053A01F45
:01006000227D
:10006300020398EC4D6011E8497017ED33EC33044B
:10007300600DE4FCFFFEFD22E933E8330470F8026F
:1000830001DF1201AA58046009E4CC248150062838
:1000930050090201E92840030201E6C0E0EB4A707F
:1000A30044B98006D0E0FB0201D5EF4E701CBD8041
:1000B30008EBFFEAFEE9FD80EBE98DF0A4FEE5F035
:1000C30002014FE9CDF9EAFEEBFFEF89F0A4FCE56D
:1000D300F0CE89F0A42EFFE435F0CD89F0A42DFEF7
:1000E300E435F08067EF4E7005BD80D780C3EF8B9A
:1000F300F0A4ACF0EE8BF0A42CFCE435F0F8EF8A1E
:10010300F0A42CE5F038FCE433CB8DF0A42CFCE513
:10011300F03BF8EE8AF0A42CFCE5F038F8E433CF9A
:1001230089F0A42CFCE5F038CF3400CE89F0A42F5D
:10013300FFE5F03EFEE433C98DF0A42EFEE5F03971
:10014300CD8AF0A42FFFE5F03EFEE43DFD33D0E081
:10015300FB50070BBB000F0201E9EC2CFCEF33FF54
:10016300EE33FEED33FD0201C175F020800E75F014
:1001730010800575F0087D007E007F003392D53036
:10018300D503120206EC334010EF33FFEE33FEEDDE
:1001930033FDEC33FCD5F0ED22E5F0247EA2D5133C
:1001A300CC92E7CDCEFF22E9D2E7C933E833F89208
:1001B300D5EDD2E7CD33EC33FC5002B2D522EC308F
:1001C300E7100FBF000C0EBE00080DBD00040BEBC3
:1001D3006014A2D5EB13FCED92E7FD2274FFFCFD46
:1001E300FEFF22E480F8A2D574FF13FC7D80E48037
:1001F300EFEF8DF0A4A8F0CF8CF0A428CE8DF0A45F
:100203002EFE22C3E49FFFE49EFEE49DFDE49CFCDE
:1002130022787FE4F6D8FD75811B02025B0203B3EB
:10022300E493A3F8E493A34003F68001F208DFF418
:100233008029E493A3F85407240CC8C333C4540F90
:100243004420C8834004F456800146F6DFE4800B63
:100253000102040810204080900417E47E0193609B
:10026300BCA3FF543F30E509541FFEE493A3600190
:100273000ECF54C025E060A840B8E493A3FAE493FA
:10028300A3F8E493A3C8C582C8CAC583CAF0A3C8A8
:10029300C582C8CAC583CADFE9DEE780BE7F811293
:1002A3000335EFC4540F75F00AA4FC7F81120335A4
:1002B300EF540F2CF5117F83120335EFC4540F75E0
:1002C300F00AA4FC7F83120335EF540F2CF5127F41
:1002D30085120335EFC4540F75F00AA4FC7F851211
:1002E3000335EF540F2CF51322E51375F00A8490B0
:1002F300042193F509E51375F00A84E5F09344802E
:10030300F50AE51275F00A8493F50BE51275F00A08
:1003130084E5F0934480F50CE51175F00A8493F5B8
:100323000DE51175F00A84E5F093F50EE4F50FF58C
:100333001022E4FDC29300C29700D293001203E19E
:10034300E4FFC297EDC313FD30A303430580D297A7
:100353000FBF08EEC29300C29700D29700C2A3005A
:10036300D2A300AF0522E4FD7FC012005474092517
:1003730008F8E6F4FD7FE0120054AF087401A80703
:10038300088002C333D8FCFD7FC0120054E5080483
:100393005407F50822C0E0C0D075D000C000C005E6
:1003A300C007120369D007D005D000D0D0D0E03207
:1003B3001204067B377D3B7F171200031203F412EE
:1003C30002EC1202A080F8FD7F80C29300C2970066
:1003D300D293001203E1AF051203E1C29322E4FEBC
:1003E300C297EF1392A3EFC313FFD2970EBE08F089
:1003F30022538EFB75D71875D6FC438E1043AF047A
:10040300D2AF22E4FD7FA01200547514FFAD147F18
:1004130080020054010800011600011900003F0684
:080423005B4F666D7D077F6FE2
:00000001FF
