:030000000200B645
:0C00B600787FE4F6D8FD75810A02000393
:0700CA00E4FD7FA00200C26B
:100003001200CA750955AD097F801200C24308105A
:10001300AD087FA01200C2430902AD097F80120020
:10002300C2430840AD087FA01200C27FC87E001201
:1000330000525309FDAD097F801200C25308BFADC2
:0F004300087FA01200C27FC87E0012005280C842
:10005200E4FDFCC3ED9FEC9E500F790C7BA9DBFE07
:09006200D9FC0DBD00010C80EA7F
:01006B002272
:1000A000E4FDFCC3ED9FEC9E500B000000000DBD75
:0500B00000010C80EED0
:0100B5002228
:0A006C00E4FDFCC3ED9FEC9E500F75
:080076000000750A1BD50AFD0C
:07007E000DBD00010C80EA3A
:010085002258
:10008600E4FDFCC3ED9FEC9E500F79027B27DBFE5F
:09009600D9FC0DBD00010C80EA4B
:01009F00223E
:0800C2008D808FA0E4F5A0225F
:00000001FF
