:030000000203BD3B
:0C03BD00787FE4F6D8FD7581310204045D
:030738000128FF96
:0E077200E4FD7FA01207807DFF7F80020780DC
:10044900E529C3940A404EE4F52912053B8F2BE5B3
:100459002BB40411E52A2401FFE433FE7C007D035B
:1004690012022B8D2AE52BB40516E52AB40211E5F3
:10047900272401FFE433FE7C007D0312022B8D2724
:10048900E52BB40910E4F522E522C4333354C0FD49
:060499007FA01207802283
:100003007F811205E6EFC4540F75F00AA4FFC00701
:100013007F811205E6EF540FFED0E02EF51D7F839E
:100023001205E6EFC4540F75F00AA4FFC0077F83DF
:100033001205E6EF540FFED0E02EF51E7F85120564
:10004300E6EFC4540F75F00AA4FFC0077F851205BD
:0B005300E6EF540FFED0E02EF5232254
:1006F200C3E5259464E5249400400CE4F524F52533
:080702001205758E208F2122E3
:1006A800C3E521941EE52094005010E51C700C85CC
:1006B800232C851E26851D1F751C01C3E521941E4C
:0906C800E52094004003E4F51C58
:0106D1002206
:1005AF00C3E521941EE52094005010752201E52229
:1005BF00C4333354C0FD7FA0120780C3E521941EBE
:1005CF00E52094004010E4F522E522C4333354C0F3
:0705DF00FD7FA0120780223E
:10067B00E52A70055328FE8003432801E52AB401BF
:10068B00055328FD8003432802E52AB402055328AD
:0D069B00FB8003432804AD287F8002078008
:10028E00E52A704E751438F515F516F517F518AEF6
:10029E0020AF21FC7D6412022B7C007D0A12022B02
:1002AE0074092DF8E6F519AE20AF217C007D0A12F7
:1002BE00022B7C007D0A12022B74092DF8E6F51A2A
:1002CE00AE20AF217C007D0A12022B74092DF8E6B8
:1002DE00F51BE52A64017054E52375F00A842409A0
:1002EE00F8E6F514E52375F00A84740925F0F8E6AE
:1002FE00F515751640E51E75F00A842409F8E6F525
:10030E0017E51E75F00A84740925F0F8E6F51875E0
:10031E001940E51D75F00A842409F8E6F51AE51D65
:10032E0075F00A84740925F0F8E6F51BE52A6402D7
:10033E00707CE52BB4081E751477740A2527F8E631
:10034E00F515751640751740751840751940751AD4
:10035E0040751B4022751477740A2527F8E6F515AB
:10036E00E52C75F00A842409F8E6F516E52C75F0EF
:10037E000A84740925F0F8E6F517E52675F00A8467
:10038E002409F8E6F518E52675F00A84740925F0B7
:10039E00F8E6F519E51D75F00A842409F8E6F51A54
:0F03AE00E51D75F00A84740925F0F8E6F51B22A9
:1006D2001207721207607B327D3B7F1712049F1252
:1006E200028E1204491206F21200031205AF80EFC5
:030063000204F0A4
:1004F000C0E0C0F0C083C082C0D075D000C000C0D2
:1005000001C002C003C004C005C006C0070525E540
:100510002570020524052912064C1206A812067B36
:10052000D007D006D005D004D003D002D001D0002F
:0B053000D0D0D082D083D0F0D0E032D9
:10076000538EFB75D71875D6FC438E1043AF04D259
:02077000AF22B6
:06078D0000007F21DFFEE9
:010793002243
:0D073B000B093F065B4F666D7D077F6F3831
:10064C00E4FD7FC012078074142508F8E6F4FD7FE2
:10065C00E0120780AF087401A807088002C333D8E2
:0E066C00FCFD7FC0120780E508045407F50866
:01067A00225D
:0D0780008D80E5A0541F4FF5A053A01F224F
:04074800023000007B
:10061A00E4FF75B0F075C0FF20C4027F0420C20257
:10062A007F0820B5027F0C20B4027F1075B00FE45A
:10063A00F5C020B2010F20B1020F0F20B0030F0F37
:01064A000FA0
:01064B00228C
:10053B00E4FFFE12061AE530702DE531146012143B
:10054B00601E24027021EF601E7530007531018032
:10055B0016EF6009753000753102FE800AE48003E6
:09056B00EF7004F530F531AF0624
:010574002264
:10070A00E4F52FD29012078DC29012078D052FE5BE
:06071A002FC3940840ED1E
:0107200022B6
:1005750012070AE4F58DF58BD28E309103308FFA90
:10058500C28E308F04C28F801CAF8DEFAD8BFCE423
:100595001201717B967A43798B783C1200661201C1
:0905A500AA8E2D8F2EAE2DAF2E73
:0105AE00222A
:10074D00E4FEC297EF1392A3EFC313FFD2970EBE31
:02075D0008F0A2
:01075F002277
:0307210025F0FDC3
:10072400C29300C29700D2930012074DAF0512077F
:040734004DC29322FD
:1005E600E4FDC29300C29700D2930012074DE4FFC8
:1005F600C297EDC313FD30A303430580D2970FBF07
:1006060008EEC29300C29700D29700C2A300D2A3FD
:0306160000AF052D
:0106190022BE
:10049F00AC07AA05E4FD7F8E120724EB75F00A84E2
:1004AF00C454F0FFEB75F00A84EF7F80120721EA46
:1004BF0075F00A84C454F0FFEA75F00A84EF7F8266
:1004CF00120721EC75F00A84C454F0FFEC75F00AA2
:1004DF0084EF25F0FD7F841207247D807F8E020735
:0104EF0024E8
:10006600EC4D6011E8497017ED33EC3304600DE494
:10007600FCFFFEFD22E933E8330470F80202161293
:1000860001E158046009E4CC248150062850090295
:10009600022028400302021DC0E0EB4A7044B980EA
:1000A60006D0E0FB02020CEF4E701CBD8008EBFF91
:1000B600EAFEE9FD80EBE98DF0A4FEE5F002014FD2
:1000C600E9CDF9EAFEEBFFEF89F0A4FCE5F0CE8975
:1000D600F0A42EFFE435F0CD89F0A42DFEE435F032
:1000E6008067EF4E7005BD80D780C3EF8BF0A4AC60
:1000F600F0EE8BF0A42CFCE435F0F8EF8AF0A42C9B
:10010600E5F038FCE433CB8DF0A42CFCE5F03BF8AD
:10011600EE8AF0A42CFCE5F038F8E433CF89F0A49D
:100126002CFCE5F038CF3400CE89F0A42FFFE5F0A3
:100136003EFEE433C98DF0A42EFEE5F039CD8AF0FB
:10014600A42FFFE5F03EFEE43DFD33D0E0FB500773
:100156000BBB000F020220EC2CFCEF33FFEE33FE4C
:06016600ED33FD0201F87B
:10016C0075F020800E75F010800575F0087D007E0E
:10017C00007F003392D530D503120280EC3340104F
:10018C00EF33FFEE33FEED33FDEC33FCD5F0ED2217
:0E019C00E5F0247EA2D513CC92E7CDCEFF2253
:1001AA00EDD2E7CD33EC3392D524814006E4FFFE4D
:1001BA00FDFC22FCE4CFCECDCC24E0501174FF80AC
:1001CA00EDC3CC13CCCD13CDCE13CECF13CF047049
:0701DA00F030D5DE020280C7
:1001E100E9D2E7C933E833F892D5EDD2E7CD33EC64
:0701F10033FC5002B2D522DD
:1001F800EC30E7100FBF000C0EBE00080DBD000468
:100208000BEB6014A2D5EB13FCED92E7FD2274FF13
:10021800FCFDFEFF22E480F8A2D574FF13FC7D806C
:03022800E480EF80
:1003C9000206D2E493A3F8E493A34003F68001F272
:1003D90008DFF48029E493A3F85407240CC8C33335
:1003E900C4540F4420C8834004F456800146F6DF04
:1003F900E4800B0102040810204080900738E47E55
:10040900019360BCA3FF543F30E509541FFEE493F8
:10041900A360010ECF54C025E060A840B8E493A3BF
:10042900FAE493A3F8E493A3C8C582C8CAC583CAEA
:10043900F0A3C8C582C8CAC583CADFE9DEE780BEA2
:01074C0000AC
:10022B00BC000BBE0029EF8DF084FFADF022E4CCB7
:10023B00F875F008EF2FFFEE33FEEC33FCEE9DEC80
:10024B00984005FCEE9DFE0FD5F0E9E4CEFD22EDC6
:10025B00F8F5F0EE8420D21CFEADF075F008EF2F10
:10026B00FFED33FD4007985006D5F0F222C398FD01
:05027B000FD5F0EA229E
:0E028000C3E49FFFE49EFEE49DFDE49CFC228F
:00000001FF
