:0300000002067580
:0C067500787FE4F6D8FD7581430206BCD6
:10077400012C00012601013F01012E1E012D1EC185
:1007840003023A0000C10101430002210000C10438
:10079400022F000002290000023C00000227000092
:1007A400C105014101013900014000012300012577
:1007B400000124000142000134000133000132FF32
:0A07C400013100012B00C100C10249
:100B2E00E4FD7FA0120B6A7DFF7F80120B6A7DFFB2
:050B3E007FE0020B6ADC
:100A2500E543C39464401DE4F5431208841202C3F0
:100A35008E218F22D3E522952EE52194004003D205
:050A45000422C204229E
:1005E400C3E53094E8E52F94035003020674E4F560
:1005F4002FF5301209A78E298F2AC3E52A952DE5F8
:100604002994005004D2058002C205D3E52A953D01
:10061400E529953C400EE52A953DF528E529953CCC
:10062400F527800DC3E53D952AF528E53C9529F588
:100634002785293C852A3DE539D3940040031539A3
:1006440022C3E5289405E52794005005753F0180F1
:1006540013C3E528940AE52794005005753F0280EA
:1006640003753F03E541653F6006853F41753903E6
:010674002263
:10052800E540C3941450030205E3E4F54012091CA6
:100538008F3E1208498F24E53EB40417E52C045475
:1005480003F52CB40206C203D2018007E52CB403DC
:1005580002C201E53EB40507E52CB40202B203E588
:100568003EB40823E52CB4021E20030BE52EC394E9
:10057800505004052E801030030DE52DC3945050C3
:10058800067405252DF52DE53EB40923E52CB402A6
:100598001E20030BE52ED394144004152E80103032
:1005A800030DE52DD39414400674FB252DF52DE598
:1005B800B0540CF523E5C05404F525E52CB4031B11
:1005C800E5237008E525700405428003E4F542E55B
:0C05D80042D394644005E4F53AF53B2260
:10070100E534C39464406BE4F5347F411209D28F20
:1007110033AC33E412028FE4FBFA794C78421201D4
:100721006F8F388E378D368C35E4FFFE7D407C40EF
:10073100AB38AA37A936A83512020C400475260138
:1007410022E4FFFEFD7C40AB38AA37A936A835125A
:10075100020C400475260222E4FFFEFD7C3FAB380B
:10076100AA37A936A83512020C4004752603227552
:0307710026042239
:1007E200200163300531E526B401085332FE43325D
:1007F2000E8027E526B402085332FC43320C801ADD
:10080200E526B403085332F8433208800DE526B4D6
:1008120004085332F0800343320F0531E53FB4013F
:10082200028019E53FB40202800DE53175F0C884FB
:10083200E5F0C39464500553327F8003433280ADA8
:07084200327F80120B6A22D5
:1008EB0020012DA200920230051A300417432B1061
:1008FB00D200A202300001B3500F053BE53B70095B
:10090B00053A8005532BEFC200AD2B7FA0120B6A6B
:01091B0022B9
:1003A700E52C7037751439AE21AF22FC7D0A120394
:1003B7004474092FF8E6F515AE21AF227C007D0ABB
:1003C70012034474092DF8E6F516E4F519F518F546
:1003D70017751A3774092526020523E52C64017061
:1003E7004D7514387409253FF8E6F515E4F518F549
:1003F70017F516AE29AF2AFC7D6412034474092F42
:10040700F8E6F519AE29AF2A7C007D0A1203447C71
:10041700007D0A12034474092DF8E6F51AAE29AFD8
:100427002A7C007D0A12034474092D020523E52C5A
:100437006402704920031E751473751539F519F593
:1004470018F517F516E52E75F00A842409F8E6F570
:100457001AE52E801D751473751538E4F519F5180E
:10046700F517F516E52D75F00A842409F8E6F51A4F
:10047700E52D75F00A84740925F0020523E52C643F
:10048700036003020527751437751539F517F51637
:10049700D3E53B94E7E53A94034016AE3AAF3B7C8D
:1004A700037DE81203447C007D0A120344AF0580F4
:1004B700027F0A74092FF8E6F518D3E53B9463E544
:1004C7003A94004016AE3AAF3B7C007D6412034479
:1004D7007C007D0A120344AF0580027F0A74092F4E
:1004E700F8E6F519D3E53B9409E53A94004016AED2
:1004F7003AAF3B7C007D0A1203447C007D0A12035D
:1005070044AF0580027F0A74092FF8E6F51AAE3A60
:10051700AF3B7C007D0A12034474092DF8E6F51BF6
:0105270022B1
:100A4A00120B2E120B581208841202C3EF6455605F
:100A5A00F51203A7120A251205E412052812070146
:020A6A0080EF1B
:0300630002000395
:10000300C0E0C0F0C083C082C0D075D000C000C0C3
:1000130001C002C003C004C005C006C00712094CDA
:1000230005430530E5307002052F054005341207FE
:10003300E21208EBD007D006D005D004D003D002DB
:0F004300D001D000D0D0D082D083D0F0D0E03226
:100B5800538EFB75D71875D6FC438E1043AF04D25D
:020B6800AF22BA
:0D0B6A008D80E5A0541F4FF5A053A01F2261
:1007CE000B093F065B4F666D7D077F6F00010800CA
:10094C00E4FD7FC0120B6A74142508F8E6F4FD7FF1
:10095C00E0120B6AAF087401A807088002C333D8F1
:0E096C00FCFD7FC0120B6AE508045407F50875
:01097A00225A
:0307DE00011C00FB
:1008B900E4FF75B0F075C0FF20C4027F0420C202B6
:1008C9007F0820B5027F0C20B4027F1075B00FE4B9
:1008D900F5C020B2010F20B1020F0F20B0030F0F96
:0108E9000FFF
:0108EA0022EB
:100849007FFF75B0F075C0FF20C4027F7020C2021F
:100859007FB020B5027FD020B4027FE075B00FE4ED
:10086900F5C020B30343070720B20343070B20B1A8
:0A0879000343070D20B00343070EF0
:010883002252
:10091C00E4FFFE1208B9E51C14600F14601A2402DF
:10092C00701BEF6018751C018013EF6006751C02BC
:0F093C00FE800AE4F51C8005EF7002F51CAF0683
:01094B002289
:060AAB00D2AF7F057E00C2
:100AB100EF1FAA0670011E4A600BE4FDEDC3940C02
:050AC10050EE0D80F76E
:010AC600220D
:020A6C00A907D8
:100A6E00E4FBC2AFC294E9139294120AADD294D2AF
:100A7E00AFE9C313F90BBB08E97F057E00020AB18B
:100AC700E4FBC2AFC294ECC313FCD294309403434B
:0B0AD7000480120AAB0BBB08E9AF045F
:010AE20022F1
:1009FC00C206D2947F0C7E00120AB1C2947F287E6C
:100A0C0000120AB1D294C2AF7F0A7E00120AB1A2C0
:080A1C00949206120AABA20637
:010A240022AF
:100884001209FC7FCC120A6C7F44120A6C1209FC18
:100894007FCC120A6C7FBE120A6C120AC7A9071217
:1008A4000AC7EFAD01FCE412028AE4FBFA7980780E
:0408B4003D1200668B
:0108B800221D
:040AE300D2A07F031B
:100AE700000000000000000000000000000000AE51
:060AF700071FEE70EB2268
:0F005200D2A1120AE3C2A17F03120AE7C2A022C1
:0C0B7700C2A1120AE3D2A17F03020AE728
:02097B00AD07C6
:10097D00E4FCC2A07F03120AE7ED30E704D2A180A8
:10098D0002C2A17F03120AE7D2A0ED25E0FD7F038D
:09099D00120AE70CBC08DBC2A041
:0109A600222E
:100A8E00E4FC120AE3ED25E0FD30A103430501C2AB
:0C0A9E00A07F03120AE70CBC08E8AF05BB
:010AAA002229
:030B430012097B19
:100B4600120AE3A2A1E433FDC2A07F03120AE7AFB3
:010B56000599
:010B5700227B
:100B1600C2A0EF24FF92A17F03120AE7120AE3C2E2
:080B2600A0D2A17F03020AE73F
:0209D200AB0771
:1009D4001200527F90120B43AF03120B43120052CA
:1009E4007F9112097B120B46120A8EAD077F01120A
:0709F4000B16120B77AF0593
:0109FB0022D9
:100AFD00E4FFD290E4FE000EBE19FBC290E4FE00AE
:080B0D000EBE19FB0FBF08EA40
:010B150022BD
:1009A700120AFDE4F5E9F5F9D2DE30910330DFFAFA
:1009B700C2DEAFF9EFADE9FCE412028A7B967A4317
:0A09C700798B783C1200661202C31F
:0109D1002203
:10006600EC4D6011E8497017ED33EC3304600DE494
:10007600FCFFFEFD22E933E8330470F802032F1279
:1000860002FA58046009E4CC24815006285009027B
:100096000339284003020336C0E0EB4A7044B980B6
:1000A60006D0E0FB020325EF4E701CBD8008EBFF77
:1000B600EAFEE9FD80EBE98DF0A4FEE5F002014FD2
:1000C600E9CDF9EAFEEBFFEF89F0A4FCE5F0CE8975
:1000D600F0A42EFFE435F0CD89F0A42DFEE435F032
:1000E6008067EF4E7005BD80D780C3EF8BF0A4AC60
:1000F600F0EE8BF0A42CFCE435F0F8EF8AF0A42C9B
:10010600E5F038FCE433CB8DF0A42CFCE5F03BF8AD
:10011600EE8AF0A42CFCE5F038F8E433CF89F0A49D
:100126002CFCE5F038CF3400CE89F0A42FFFE5F0A3
:100136003EFEE433C98DF0A42EFEE5F039CD8AF0FB
:10014600A42FFFE5F03EFEE43DFD33D0E0FB500773
:100156000BBB000F020339EC2CFCEF33FFEE33FE32
:06016600ED33FD02031160
:10016C00020339EC5D046005E85904700302032FA7
:10017C001202FA580460F6EC4860F2EC7004FDFED2
:10018C00FF22C860DB2481C85009C3986002500666
:10019C000203369850CAF582E9294B4A7005AB82A6
:1001AC0002032575F0007C1A7880C3EF9BEE9AED64
:1001BC0099400DC3EF9BFFEE9AFEED99FDE842F0DE
:1001CC00DC23ACF0D0E0FFD0E0FED0E0FDAB822031
:1001DC00E7101BEB60BAEC2CFCEF33FFEE33FEEDBB
:1001EC0033FD020311E803F830E705C0F075F000A9
:1001FC00EF2FFFEE33FEED33FD40B830E7C280AA9F
:10020C0074F8CC6480CCC86480C8F58204604FC399
:10021C00EB9FF5F0EA9E42F0E99D42F0E89C45F038
:10022C00603C501DE5825FFFE582D313CB5BCBF4C2
:10023C002B5582FB50280ABA002409B900200880EB
:10024C001DE5825BFBE582D313CF5FCFF4C3132F85
:10025C005582FF50090EBE00050DBD00010CC3EB0D
:10026C009FF5F0EA9E42F0E99D42F0E89C45F06073
:09027C0007CC4820E701B3EC2295
:1002850075F020800E75F010800575F0087D007EF4
:10029500007F003392D530D503120399EC3340101B
:1002A500EF33FFEE33FEED33FDEC33FCD5F0ED22FD
:0E02B500E5F0247EA2D513CC92E7CDCEFF2239
:1002C300EDD2E7CD33EC3392D524814006E4FFFE33
:1002D300FDFC22FCE4CFCECDCC24E0501174FF8092
:1002E300EDC3CC13CCCD13CDCE13CECF13CF04702F
:0702F300F030D5DE02039993
:1002FA00E9D2E7C933E833F892D5EDD2E7CD33EC4A
:07030A0033FC5002B2D522C2
:10031100EC30E7100FBF000C0EBE00080DBD00044D
:100321000BEB6014A2D5EB13FCED92E7FD2274FFF9
:10033100FCFDFEFF22E480F8A2D574FF13FC7D8052
:03034100E480EF66
:10068100020A4AE493A3F8E493A34003F68001F23B
:1006910008DFF48029E493A3F85407240CC8C3337A
:1006A100C4540F4420C8834004F456800146F6DF49
:1006B100E4800B0102040810204080900774E47E5E
:1006C100019360BCA3FF543F30E509541FFEE4933E
:1006D100A360010ECF54C025E060A840B8E493A305
:1006E100FAE493A3F8E493A3C8C582C8CAC583CA30
:1006F100F0A3C8C582C8CAC583CADFE9DEE780BEE8
:0107E1000017
:10034400BC000BBE0029EF8DF084FFADF022E4CC9D
:10035400F875F008EF2FFFEE33FEEC33FCEE9DEC66
:10036400984005FCEE9DFE0FD5F0E9E4CEFD22EDAC
:10037400F8F5F0EE8420D21CFEADF075F008EF2FF6
:10038400FFED33FD4007985006D5F0F222C398FDE7
:050394000FD5F0EA2284
:0E039900C3E49FFFE49EFEE49DFDE49CFC2275
:00000001FF
