:0300000002006695
:0C006600787FE4F6D8FD7581170200AD2C
:100220003F065B4F666D7D077F6F003E73767938C2
:0602520001080001090093
:10004700E4FDFCC3ED9FEC9E500F790C7BA9DBFE12
:09005700D9FC0DBD00010C80EA8A
:01006000227D
:1001D400E4FDFCC3ED9FEC9E500B000000000DBD40
:0501E40000010C80EE9B
:0101E90022F3
:1001BC00E4FDFCC3ED9FEC9E500D00007B1BDBFEB1
:0701CC000DBD00010C80ECE9
:0101D3002209
:1001A200E4FDFCC3ED9FEC9E500F79027B27DBFE42
:0901B200D9FC0DBD00010C80EA2E
:0101BB002221
:08024A008D808FA0E4F5A022D5
:10020F00E4FD7FA012024A750DFFAD0D7F80020243
:01021F004A94
:1001FD00538EFB75D71875D6FC438E1043AF04D2C2
:02020D00AF221E
:10000300E4FEE5B0540FFFE50814601114602C24DE
:1000130002702EEF640F60297508018024EF640FCE
:10002300601CBF0E027E07BF0D027E06BF0B027E61
:1000330005BF07027E047508028006BF0F03E4F5BF
:0300430008AF06FD
:010046002297
:0B023E00E5B0F4FF650B5FF50C8F0BC3
:010249002292
:1001EA00E517C3940A400BE4F517120003BF040293
:0201FA00050AF4
:0101FC0022E0
:1000F200E517C3940A402AE4F51712023EE50C30D4
:10010200E302050AE50C30E202150AE50C30E106CD
:10011200740A250AF50AE50C30E00674F6250AF59C
:020122000A22AF
:10012400E50A75F0648490022093F50EE50A75F0F3
:100134000A8475F00A84E5F093F50FE50A75F00A70
:1001440084E5F093F510E4F511F512F513F514F5C3
:02015400152272
:0E02300012020F1201FD1201241200F280F8DA
:10015600E4FD7FC012024A740E2509F8E6F4FD7F1D
:10016600E012024AAF097401A807088002C333D817
:0E017600FCFD7FC012024AE509045407F5099A
:010184002258
:0300630002018512
:10018500C0E0C0D075D000C000C005C0070517127B
:0D0195000156D007D005D000D0D0D0E03208
:10007200020230E493A3F8E493A34003F68001F272
:1000820008DFF48029E493A3F85407240CC8C3338F
:10009200C4540F4420C8834004F456800146F6DF5E
:1000A200E4800B0102040810204080900252E47E9A
:1000B200019360BCA3FF543F30E509541FFEE49353
:1000C200A360010ECF54C025E060A840B8E493A31A
:1000D200FAE493A3F8E493A3C8C582C8CAC583CA45
:1000E200F0A3C8C582C8CAC583CADFE9DEE780BEFD
:0102580000A5
:00000001FF
