:0300000002006695
:0C006600787FE4F6D8FD7581250200AD1E
:10026700E4FD7FA01202B67DFF7F801202B6E4FD97
:050277007FC00202B689
:100003007F811201D6EFC4540F75F00AA4FFC00715
:100013007F811201D6EF540FFED0E02EF5237F83AC
:100023001201D6EFC4540F75F00AA4FFC0077F83F3
:100033001201D6EF540FFED0E02EF5247F85120176
:10004300D6EFC4540F75F00AA4FFC0077F851201D1
:0B005300D6EF540FFED0E02EF5252262
:1000F200E52575F00A842409F8E6F51BE52575F077
:100102000A84740925F0F8E64480F51CE52475F0AC
:100112000A842409F8E6F51DE52475F00A847409B9
:1001220025F0F8E64480F51EE52375F00A842409DB
:10013200F8E6F51FE52375F00A84740925F0F8E660
:08014200F520E4F521F522226D
:100239001202671202A47B377D3B7F1712014A1213
:0702490000F212000380F82F
:0300630002019BFC
:10019B00C0E0C0F0C083C082C0D075D000C000C02A
:1001AB0001C002C003C004C005C006C00712020A8A
:1001BB00D007D006D005D004D003D002D001D00098
:0B01CB00D0D0D082D083D0F0D0E03242
:1002A400538EFB75D71875D6FC438E1043AF04D21A
:0202B400AF2277
:0D02B6008D80E5A0541F4FF5A053A01F221E
:10029100E4FEC297EF1392A3EFC313FFD2970EBEF2
:0202A10008F063
:0102A3002238
:0302500025F0FD99
:10025300C29300C29700D29300120291AF0512021B
:0402630091C293228F
:1001D600E4FDC29300C29700D29300120291E4FF9D
:1001E600C297EDC313FD30A303430580D2970FBF1B
:1001F60008EEC29300C29700D29700C2A300D2A312
:0302060000AF0541
:0102090022D2
:10014A00AC07AA05E4FD7F8E120253EB75F00A8410
:10015A00C454F0FFEB75F00A84EF7F80120250EA74
:10016A0075F00A84C454F0FFEA75F00A84EF7F82BE
:10017A00120250EC75F00A84C454F0FFEC75F00AD0
:10018A0084EF25F0FD7F841202537D807F8E020268
:01019A005311
:10027C0012093F065B4F666D7D077F6F777C395E99
:04028C0079717638D6
:10020A00E4FD7FC01202B6741B2508F8E6F4FD7FF0
:10021A00E01202B6AF087401A807088002C333D8F7
:0E022A00FCFD7FC01202B6E508045407F5087B
:0102380022A3
:10007200020239E493A3F8E493A34003F68001F269
:1000820008DFF48029E493A3F85407240CC8C3338F
:10009200C4540F4420C8834004F456800146F6DF5E
:1000A200E4800B010204081020408090027CE47E70
:1000B200019360BCA3FF543F30E509541FFEE49353
:1000C200A360010ECF54C025E060A840B8E493A31A
:1000D200FAE493A3F8E493A3C8C582C8CAC583CA45
:1000E200F0A3C8C582C8CAC583CADFE9DEE780BEFD
:01029000006D
:00000001FF
