:03000000020415E2
:0C041500787FE4F6D8FD75812402045CB9
:1006DC00E4FD7FA012072C7516FFAD167F80020774
:0106EC002CE1
:10060E00E517C39464401CE4F5171204DE7B007AF0
:10061E0040791C78461200661201AA8F148E138D33
:04062E00128C1122F7
:10031900E51575F00A8490070993F509E51575F057
:100329000A84E5F093F50A7BA07A8679017800AF13
:1003390014AE13AD12AC1112027974092FF582743F
:10034900073EF583E493F50BE47B107A27F9F8AFC0
:1003590014AE13AD12AC11120279E47B0AFAF9F862
:1003690012027974092BF58274073AF583E49344F0
:1003790080F50CE47BE87A03F9F8AF14AE13AD12FB
:10038900AC11120279E47B0AFAF9F81202797409BC
:100399002BF58274073AF583E493F50DE47B64FA4F
:1003A900F9F8AF14AE13AD12AC11120279E47B0A5D
:1003B900FAF9F812027974092BF58274073AF58370
:1003C900E493F50EE47B0AFAF9F8AF14AE13AD1213
:1003D900AC11120279E47B0AFAF9F812027974096C
:1003E9002BF58274073AF583E493F50FE47B0AFA57
:1003F900F9F8AF14AE13AD12AC1112027974092BCE
:0C040900F58274073AF583E493F51022A5
:0E06ED001206DC1206CA12031912060E80F85D
:030063000204A1F3
:1004A100C0E0C0F0C083C082C0D075D000C000C021
:1004B10001C002C003C004C005C006C00705171271
:1004C10005B8D007D006D005D004D003D002D001A2
:0D04D100D000D0D0D082D083D0F0D0E03267
:10004700E4FDFCC3ED9FEC9E500F790C7BA9DBFE12
:09005700D9FC0DBD00010C80EA8A
:01006000227D
:10069E00E4FDFCC3ED9FEC9E500B000000000DBD71
:0506AE0000010C80EECC
:0106B3002224
:0A065000E4FDFCC3ED9FEC9E500F8B
:08065A00000075241BD524FDEE
:070662000DBD00010C80EA50
:01066900226E
:10066A00E4FDFCC3ED9FEC9E500F79027B27DBFE75
:09067A00D9FC0DBD00010C80EA61
:010683002254
:1006CA00538EFB75D71875D6FC438E1043AF04D2F0
:0206DA00AF224D
:08072C008D808FA0E4F5A022EE
:0D0709003F065B4F666D7D077F6F76793888
:03072200010800CB
:1005B800E4FD7FC012072C74092508F8E6F4FD7FD6
:1005C800E012072CAF087401A807088002C333D8CB
:0E05D800FCFD7FC012072CE508045407F5084F
:0105E60022F2
:03072500011D00B3
:10000300E4FEE5B0540FFFE51D14601114602C24C9
:1000130002702EEF640F6029751D018024EF640FB9
:10002300601CBF0E027E07BF0D027E06BF0B027E61
:1000330005BF07027E04751D028006BF0F03E4F5AA
:030043001DAF06E8
:010046002297
:0B071600E5B0F4FF651E5FF51F8F1EAD
:0107210022B5
:03072800012100AC
:10055600E4FF75B0F075C0FF20C4027F0420C2021C
:100566007F0820B5027F0C20B4027F1075B00FE41F
:10057600F5C020B2010F20B1020F0F20B0030F0FFC
:010586000F65
:010587002251
:10051B007FFF75B0F075C0FF20C4027F7020C20250
:10052B007FB020B5027FD020B4027FE075B00FE41E
:10053B00F5C020B30343070720B20343070B20B1D9
:0A054B000343070D20B00343070E21
:010555002283
:10058800E4FFFE120556E52114600F14601A2402D8
:10059800701BEF60187521018013EF60067521024A
:0F05A800FE800AE4F5218005EF7002F521AF0611
:0105B7002221
:0D06FB0012051BEFF4FF65225FF5238F222F
:0107080022CE
:0406B4007F057E0040
:1006B8007C007D0C12022BEF1FAC0670011E4C70E3
:0206C800F62218
:02063200AB0714
:10063400E4FAC294EB1392941206B4D294EBC3136B
:0C064400FB0ABA08ED7F057E000206B834
:10068400E4FAC294EBC313FBD29430940343038083
:090694001206B40ABA08EBAF0328
:01069D00223A
:1005E700C200D2947F0C7E001206B8C2947F507E60
:1005F700001206B8D2947F0A7E001206B8A294921F
:06060700001206B4A2007F
:01060D0022CA
:1004DE001205E77FCC1206327F441206321205E770
:1004EE007FCC1206327FBE120632120684A9071284
:1004FE000684EFAD01FCE4120171E4FBFA79807819
:0C050E003D1200668F1C8E1B8D1A8C198C
:01051A0022BE
:10006600EC4D6011E8497017ED33EC3304600DE494
:10007600FCFFFEFD22E933E8330470F80202161293
:1000860001E158046009E4CC248150062850090295
:10009600022028400302021DC0E0EB4A7044B980EA
:1000A60006D0E0FB02020CEF4E701CBD8008EBFF91
:1000B600EAFEE9FD80EBE98DF0A4FEE5F002014FD2
:1000C600E9CDF9EAFEEBFFEF89F0A4FCE5F0CE8975
:1000D600F0A42EFFE435F0CD89F0A42DFEE435F032
:1000E6008067EF4E7005BD80D780C3EF8BF0A4AC60
:1000F600F0EE8BF0A42CFCE435F0F8EF8AF0A42C9B
:10010600E5F038FCE433CB8DF0A42CFCE5F03BF8AD
:10011600EE8AF0A42CFCE5F038F8E433CF89F0A49D
:100126002CFCE5F038CF3400CE89F0A42FFFE5F0A3
:100136003EFEE433C98DF0A42EFEE5F039CD8AF0FB
:10014600A42FFFE5F03EFEE43DFD33D0E0FB500773
:100156000BBB000F020220EC2CFCEF33FFEE33FE4C
:06016600ED33FD0201F87B
:10016C0075F020800E75F010800575F0087D007E0E
:10017C00007F003392D530D50312030BEC334010C3
:10018C00EF33FFEE33FEED33FDEC33FCD5F0ED2217
:0E019C00E5F0247EA2D513CC92E7CDCEFF2253
:1001AA00EDD2E7CD33EC3392D524814006E4FFFE4D
:1001BA00FDFC22FCE4CFCECDCC24E0501174FF80AC
:1001CA00EDC3CC13CCCD13CDCE13CECF13CF047049
:0701DA00F030D5DE02030B3B
:1001E100E9D2E7C933E833F892D5EDD2E7CD33EC64
:0701F10033FC5002B2D522DD
:1001F800EC30E7100FBF000C0EBE00080DBD000468
:100208000BEB6014A2D5EB13FCED92E7FD2274FF13
:10021800FCFDFEFF22E480F8A2D574FF13FC7D806C
:03022800E480EF80
:100421000206EDE493A3F8E493A34003F68001F2FE
:1004310008DFF48029E493A3F85407240CC8C333DC
:10044100C4540F4420C8834004F456800146F6DFAB
:10045100E4800B0102040810204080900722E47E12
:10046100019360BCA3FF543F30E509541FFEE493A0
:10047100A360010ECF54C025E060A840B8E493A367
:10048100FAE493A3F8E493A3C8C582C8CAC583CA92
:10049100F0A3C8C582C8CAC583CADFE9DEE780BE4A
:01072B0000CD
:10022B00EF8DF0A4A8F0CF8CF0A428CE8DF0A42EE7
:02023B00FE22A1
:10023D0075F008758200EF2FFFEE33FECD33CDCC78
:10024D0033CCC58233C5829BED9AEC99E5829840FB
:10025D000CF582EE9BFEED9AFDEC99FC0FD5F0D6D8
:10026D00E4CEFBE4CDFAE4CCF9A88222B800C1B902
:10027D000059BA002DEC8BF084CFCECDFCE5F0CB40
:10028D00F97818EF2FFFEE33FEED33FDEC33FCEB79
:10029D0033FB10D703994004EB99FB0FD8E5E4F934
:1002AD00FA227818EF2FFFEE33FEED33FDEC33FC21
:1002BD00C933C910D7059BE99A4007EC9BFCE99A15
:1002CD00F90FD8E0E4C9FAE4CCFB2275F010EF2F5A
:1002DD00FFEE33FEED33FDCC33CCC833C810D7075A
:1002ED009BEC9AE899400AED9BFDEC9AFCE899F895
:0E02FD000FD5F0DAE4CDFBE4CCFAE4C8F92228
:0E030B00C3E49FFFE49EFEE49DFDE49CFC2203
:00000001FF
