:030000000200A05B
:0C00A000787FE4F6D8FD758109020003AA
:0700B400E4FD7FA00200AC97
:100003001200B4750955AD097F801200AC43081086
:10001300AD087FA01200AC430902AD097F80120036
:10002300AC7FC87E0012003E5309FDAD097F8012EC
:0B00330000AC7FC87E0012003E80DCA5
:10003E00E4FDFCC3ED9FEC9E500F790C7BA9DBFE1B
:09004E00D9FC0DBD00010C80EA93
:010057002286
:10008A00E4FDFCC3ED9FEC9E500B000000000DBD8B
:05009A0000010C80EEE6
:01009F00223E
:10007200E4FDFCC3ED9FEC9E500D00007B1BDBFEFC
:070082000DBD00010C80EC34
:010089002254
:10005800E4FDFCC3ED9FEC9E500F79027B27DBFE8D
:09006800D9FC0DBD00010C80EA79
:01007100226C
:0800AC008D808FA0E4F5A02275
:00000001FF
