:0300000002006695
:0C006600787FE4F6D8FD75811E0200AD25
:1001FD00E4FD7FA01202327DFF7F80120232E4FD0A
:05020D007FC002023277
:1001D600051EE51E7002051DC39464E51D940040CE
:1001E60015E4F51DF51EE58A75F00AA485F01BF5E4
:0701F6001CE4F58AF58C22E0
:1000F200AE1BAF1C7C277D1012000374092FF8E69B
:10010200F513AE1BAF1C7C037DE81200037C007D5F
:100112000A12000374092DF8E6F514AE1BAF1C7C1D
:10012200007D641200037C007D0A12000374092D15
:10013200F8E6F515AE1BAF1C7C007D0A1200037CAD
:10014200007D0A12000374092DF8E6F516AE1BAF06
:100152001C7C007D0A12000374092DF8E6F517E4F1
:07016200F518F519F51A224A
:0E0224001201FD1202121200581200F280FBAD
:030063000201692E
:10016900C0E0C0F0C083C082C0D075D000C000C05C
:1001790001C002C003C004C005C006C0071201A720
:100189001201D6D007D006D005D004D003D002D0B2
:0E01990001D000D0D0D082D083D0F0D0E032A0
:0D0232008D80E5A0541F4FF5A053A01F22A2
:0B005800438905E4F58AF58CD28C2268
:0C023F000A093F065B4F666D7D077F6F6C
:1001A700E4FD7FC012023274132508F8E6F4FD7FE0
:1001B700E0120232AF087401A807088002C333D8DF
:0E01C700FCFD7FC0120232E508045407F50863
:0101D5002207
:10021200538EFB75D71875D6FC438E1043AF04D2AC
:02022200AF2209
:10007200020224E493A3F8E493A34003F68001F27E
:1000820008DFF48029E493A3F85407240CC8C3338F
:10009200C4540F4420C8834004F456800146F6DF5E
:1000A200E4800B010204081020408090023FE47EAD
:1000B200019360BCA3FF543F30E509541FFEE49353
:1000C200A360010ECF54C025E060A840B8E493A31A
:1000D200FAE493A3F8E493A3C8C582C8CAC583CA45
:1000E200F0A3C8C582C8CAC583CADFE9DEE780BEFD
:01024B0000B2
:10000300BC000BBE0029EF8DF084FFADF022E4CCE1
:10001300F875F008EF2FFFEE33FEEC33FCEE9DECAA
:10002300984005FCEE9DFE0FD5F0E9E4CEFD22EDF0
:10003300F8F5F0EE8420D21CFEADF075F008EF2F3A
:10004300FFED33FD4007985006D5F0F222C398FD2B
:050053000FD5F0EA22C8
:00000001FF
