:030000000205AC4A
:0C05AC00787FE4F6D8FD75812E0205F37F
:09083400012119012C190127FF13
:0E091300E4FD7FA01209217DFF7F80020921F3
:1007D800E52DC394644017E4F52D1206EFE4FBFA07
:0F07E80079C8784212015E1203428E238F2422B9
:10051A00E529C3940A50030205ABE4F529E52270E4
:10052A001BE52C75F064A4FFC3E5249FE52395F031
:10053A005005E4F52880517528FF804CD3E52494B2
:10054A00D0E52394075005752833803CC3E52494ED
:10055A00A0E523940F40057528CC802CAC23AD244C
:10056A00E41203097BCD7ACC79F4784012015EE477
:10057A00FBFA79C87842120267E4FBFA79CC78C2AE
:10058A0012006D1203428F28AF2812086EE52875F3
:10059A00F064A4FFAEF07C007D331203D58E258F64
:0205AA00262207
:10000300E52AC3940A4058E4F52A12067C8F2EE5AC
:100013002EB40419E52B2401FFE433FE7C007D0399
:100023001203D58D2BE52BB4020385212CE52EB4C9
:10003300080EE52BB40109E521D3940040021521F4
:10004300E52EB4090EE52BB40109E521C3946450F0
:10005300020521E52EB40507E522045401F5222209
:1006B600E52270055327FE8003432701E52B7005CD
:1006C6005327FD8003432702E52BB401055327FB7F
:1006D6008003432704E52BB402055327F780034321
:0906E6002708AD277F80020921DD
:10043800E52B7061851316F517F518F519AE23AF7E
:10044800247C037DE81203D574092FF8E6F51AAE6B
:1004580023AF247C007D641203D57C007D0A12033F
:10046800D574092DF8E64480F51BAE23AF247C0033
:100478007D0A1203D57C007D0A1203D574092DF874
:10048800E6F51CAE23AF247C007D0A1203D574095F
:100498002DF8E6F51DE52B64017027851416F51770
:1004A800F518F519F51AF51BE52175F00A842409E4
:1004B800F8E6F51CE52175F00A84740925F0F8E6DC
:1004C800F51DE52B64027049851516F517F518F525
:1004D80019F51AAE25AF26FC7D641203D574092FD1
:1004E800F8E64480F51BAE25AF267C007D0A120392
:1004F800D57C007D0A1203D574092DF8E6F51CAEEB
:1005080025AF267C007D0A1203D574092DF8E6F57F
:020518001D22A2
:1007F7001209131208E31206EF120342EF64556061
:0F080700F51204381207D812000312051A80F2F6
:030063000206385A
:10063800C0E0C0F0C083C082C0D075D000C000C088
:1006480001C002C003C004C005C006C007052A12C5
:100658000756052D05291206B6D007D006D005D0B5
:1006680004D003D002D001D000D0D0D082D083D023
:04067800F0D0E032AC
:1008E300538EFB75D71875D6FC438E1043AF04D2D5
:0208F300AF2232
:0E08F50000007F237E337DB6DDFEDEFCDFFAE1
:0109030022D1
:04092E00D2A07F05CF
:0809320000AE071FEE70F92270
:0F090400D2A112092EC2A17F05120932C2A02270
:0C093A00C2A112092ED2A17F05020932D1
:1008A200C2A0A20092A17F0512093212092EC2A093
:0708B200D2A17F050209320B
:0308CF0012078588
:1008D20012092EA2A19201C2A07F05120932A20121
:0108E20022F3
:02078500AD07BE
:10078700E4FCC2A07F05120932ED30E704D2A18054
:1007970002C2A17F05120932D2A0ED25E0FD7F0537
:0907A7001209320CBC08DBC2A0EF
:0107B0002226
:10085100E4FC12092EED25E0FD30A103430501C2A0
:0C086100A07F051209320CBC08E8AF05AE
:01086D002268
:10086E00AB071209047F901208CF7F401208CFAF5A
:0A087E00031207851208D202093A9E
:0408B9007F057E0039
:1008BD007C007D0C1203C3EF1FAC0670011E4C7043
:0208CD00F62211
:02081600AB072E
:10081800E4FAC294EB1392941208B9D294EBC3137E
:0C082800FB0ABA08ED7F057E000208BD47
:10088800E4FAC294EBC313FBD2943094034303807D
:090898001208B90ABA08EBAF031B
:0108A1002234
:1007B100C201D2947F0C7E001208BDC2947F507E8C
:1007C100001208BDD2947F0A7E001208BDA2949245
:0607D100011208B9A201AB
:0107D70022FF
:1006EF001207B17FCC1208167F441208161207B1F9
:1006FF007FCC1208167FBE120816120888A907129F
:10070F000888EFAD01FCE4120309E4FBFA79807865
:04071F003D12015E28
:0107230022B3
:0F083D000D093F065B4F666D7D077F6F3973773F
:10075600E4FD7FC012092174162508F8E6F4FD7F32
:10076600E0120921AF087401A807088002C333D834
:0E077600FCFD7FC0120921E508045407F508B8
:010784002252
:0D0921008D80E5A0541F4FF5A053A01F22AC
:04084C00021E000088
:10072400E4FF75B0F075C0FF20C4027F0420C2024C
:100734007F0820B5027F0C20B4027F1075B00FE44F
:10074400F5C020B2010F20B1020F0F20B0030F0F2C
:010754000F95
:010755002281
:10067C00E4FFFE120724E51E702DE51F1460121412
:10068C00601E24027021EF601E751E00751F018014
:10069C0016EF6009751E00751F02FE800AE48003C8
:0906AC00EF7004F51EF51FAF0606
:0106B5002222
:100066000203AEE86480F8E933E83360110460F017
:10007600ED33EC337009E8FCE9FDEAFEEBFF220400
:1000860060DED3EB9FEA9EE99DE8C2E78CF0C2F7FB
:1000960095F0400CE8CCF8E9CDF9EACEFAEBCFFBC7
:1000A60012037985D0F05804700320D5B3E80470A4
:1000B600075002B2D50203B892D5EC0460F7E4CC3F
:1000C600C0E0C398F8603B94186008400DD0E0FB90
:1000D600020390E4FBFAC9FC8028E830E406E4C990
:1000E600FBE4CAFCE830E305E4C9CACBFCE85407E4
:1000F6006010F8C3E913F9EA13FAEB13FBEC13FCEF
:10010600D8F130F52FC3E49CFCEF9BFFEE9AFEED91
:1001160099FDD0E0FBEF4E4D4C701222DB0302033B
:10012600B5EC2CFCEF33FFEE33FEED33FDED30E79F
:10013600EB020390EF2BFFEE3AFEED39FDD0E0FB2C
:1001460050130BBB00030203B8ED13FDEE13FEEFD5
:0801560013FFEC13FC020390FF
:10015E00EC4D6011E8497017ED33EC3304600DE49B
:10016E00FCFFFEFD22E933E8330470F80203AE1201
:10017E00037958046009E4CC248150062850090202
:10018E0003B82840030203B5C0E0EB4A7044B980BF
:10019E0006D0E0FB0203A4EF4E701CBD8008EBFFFF
:1001AE00EAFEE9FD80EBE98DF0A4FEE5F0020247E0
:1001BE00E9CDF9EAFEEBFFEF89F0A4FCE5F0CE897C
:1001CE00F0A42EFFE435F0CD89F0A42DFEE435F039
:1001DE008067EF4E7005BD80D780C3EF8BF0A4AC67
:1001EE00F0EE8BF0A42CFCE435F0F8EF8AF0A42CA2
:1001FE00E5F038FCE433CB8DF0A42CFCE5F03BF8B5
:10020E00EE8AF0A42CFCE5F038F8E433CF89F0A4A4
:10021E002CFCE5F038CF3400CE89F0A42FFFE5F0AA
:10022E003EFEE433C98DF0A42EFEE5F039CD8AF002
:10023E00A42FFFE5F03EFEE43DFD33D0E0FB50077A
:10024E000BBB000F0203B8EC2CFCEF33FFEE33FEBA
:06025E00ED33FD020390E8
:100264000203B8EC5D046005E8590470030203AEB0
:10027400120379580460F6EC4860F2EC7004FDFE59
:10028400FF22C860DB2481C85009C398600250066D
:100294000203B59850CAF582E9294B4A7005AB822E
:1002A4000203A475F0007C1A7880C3EF9BEE9AEDEC
:1002B40099400DC3EF9BFFEE9AFEED99FDE842F0E5
:1002C400DC23ACF0D0E0FFD0E0FED0E0FDAB822038
:1002D400E7101BEB60BAEC2CFCEF33FFEE33FEEDC2
:1002E40033FD020390E803F830E705C0F075F00031
:1002F400EF2FFFEE33FEED33FD40B830E7C280AAA6
:1003040075F020800E75F010800575F0087D007E74
:10031400007F003392D530D50312042AEC33401009
:10032400EF33FFEE33FEED33FDEC33FCD5F0ED227D
:0E033400E5F0247EA2D513CC92E7CDCEFF22B9
:10034200EDD2E7CD33EC3392D524814006E4FFFEB3
:10035200FDFC22FCE4CFCECDCC24E0501174FF8012
:10036200EDC3CC13CCCD13CDCE13CECF13CF0470AF
:07037200F030D5DE02042A81
:10037900E9D2E7C933E833F892D5EDD2E7CD33ECCA
:0703890033FC5002B2D52243
:10039000EC30E7100FBF000C0EBE00080DBD0004CE
:1003A0000BEB6014A2D5EB13FCED92E7FD2274FF7A
:1003B000FCFDFEFF22E480F8A2D574FF13FC7D80D3
:0303C000E480EFE7
:1005B8000207F7E493A3F8E493A34003F68001F25B
:1005C80008DFF48029E493A3F85407240CC8C33344
:1005D800C4540F4420C8834004F456800146F6DF13
:1005E800E4800B0102040810204080900834E47E67
:1005F800019360BCA3FF543F30E509541FFEE49308
:10060800A360010ECF54C025E060A840B8E493A3CE
:10061800FAE493A3F8E493A3C8C582C8CAC583CAF9
:10062800F0A3C8C582C8CAC583CADFE9DEE780BEB1
:0108500000A7
:1003C300EF8DF0A4A8F0CF8CF0A428CE8DF0A42E4E
:0203D300FE2208
:1003D500BC000BBE0029EF8DF084FFADF022E4CC0C
:1003E500F875F008EF2FFFEE33FEEC33FCEE9DECD5
:1003F500984005FCEE9DFE0FD5F0E9E4CEFD22ED1B
:10040500F8F5F0EE8420D21CFEADF075F008EF2F64
:10041500FFED33FD4007985006D5F0F222C398FD55
:050425000FD5F0EA22F2
:0E042A00C3E49FFFE49EFEE49DFDE49CFC22E3
:00000001FF
