:0300000002006695
:0C006600787FE4F6D8FD7581180200AD2B
:10021E00E4FD7FA01202667511FFAD117F80020210
:01022E006669
:10012F00E4FF75B0F075C0FF20C4027F0420C20247
:10013F007F0820B5027F0C20B4027F1075B00FE44A
:10014F00F5C020B2010F20B1020F0F20B0030F0F27
:01015F000F90
:01016000227C
:10022F00E512C3940A4008E4F51212012F8F14222D
:10016100E51475F0648490024D93F509E51475F07A
:100171000A8475F00A84E5F093F50AE51475F00A2E
:1001810084E5F093F50BE4F50CF50DF50EF50FF59F
:0201910010223A
:0E023F0012021E12020C12016112022F80F830
:030063000200F2A6
:1000F200C0E0C0F0C083C082C0D075D000C000C0D4
:1001020001C002C003C004C005C006C00705121228
:100112000193D007D006D005D004D003D002D0017D
:0D012200D000D0D0D082D083D0F0D0E03219
:10004700E4FDFCC3ED9FEC9E500F790C7BA9DBFE12
:09005700D9FC0DBD00010C80EA8A
:01006000227D
:1001F600E4FDFCC3ED9FEC9E500B000000000DBD1E
:0502060000010C80EE78
:01020B0022D0
:0A01C200E4FDFCC3ED9FEC9E500F1E
:0801CC00000075181BD518FD99
:0701D4000DBD00010C80EAE3
:0101DB002201
:1001DC00E4FDFCC3ED9FEC9E500F79027B27DBFE08
:0901EC00D9FC0DBD00010C80EAF4
:0101F50022E7
:10020C00538EFB75D71875D6FC438E1043AF04D2B2
:02021C00AF220F
:080266008D808FA0E4F5A022B9
:0D024D003F065B4F666D7D077F6F76793849
:03026E0001080084
:10019300E4FD7FC012026674092508F8E6F4FD7FCA
:1001A300E0120266AF087401A807088002C333D8BF
:0E01B300FCFD7FC0120266E508045407F50843
:0101C100221B
:0302710001150074
:10000300E4FEE5B0540FFFE51514601114602C24D1
:1000130002702EEF640F60297515018024EF640FC1
:10002300601CBF0E027E07BF0D027E06BF0B027E61
:1000330005BF07027E047515028006BF0F03E4F5B2
:0300430015AF06F0
:010046002297
:0B025A00E5B0F4FF65165FF5178F1686
:010265002276
:1000720002023FE493A3F8E493A34003F68001F263
:1000820008DFF48029E493A3F85407240CC8C3338F
:10009200C4540F4420C8834004F456800146F6DF5E
:1000A200E4800B010204081020408090026EE47E7E
:1000B200019360BCA3FF543F30E509541FFEE49353
:1000C200A360010ECF54C025E060A840B8E493A31A
:1000D200FAE493A3F8E493A3C8C582C8CAC583CA45
:1000E200F0A3C8C582C8CAC583CADFE9DEE780BEFD
:010274000089
:00000001FF
