:0300000002006695
:0C006600787FE4F6D8FD7581200200AD23
:1001FB00C4E3BAC30D0A0048656C6C6F20576F726D
:06020B006C64210D0A00E5
:10021100300110C201AD087F80120225AD097FA017
:04022100120225227E
:1000F200750D7B1200037BFF7A0179FB1201BB7B3A
:10010200FF7A0279021201BBE50D75F06484243096
:10011200FF120232E50D75F00A8475F00A84E5F0EB
:100122002430FF120232E50D75F00A84E5F0243026
:09013200FF12023212021180FBDF
:0300630002002672
:10002600C0E0C0F0C083C082C0D075D000C000C0A0
:1000360001C002C003C004C005C006C0071201E02B
:10004600D007D006D005D004D003D002D001D0000E
:0B005600D0D0D082D083D0F0D0E032B8
:0D0225008D80E5A0541F4FF5A053A01F22AF
:06023A00010B00010C00A5
:10000300759850438E40538EFE53890F758B8F75B1
:0B0013008DFDC2ABD28ED2ACD2AF226A
:0300230002018057
:10018000C0E0C0D075D000C000C00730981DC29834
:10019000750C00AF0B050B74082FF8A69974072592
:1001A0000BF8E6B40A05750B00D201309904C29928
:0B01B000C200D007D000D0D0D0E03259
:1001E000050CE50CC394324011E4F50CF50BFE7FD1
:0B01F00003FDFB7A0079081201542285
:080232002000FDD2008F99228B
:1001BB008B0E8A0F8910AB0EAA0FA91012013B6090
:1001CB00130510E5107002050F14F912013BFF1215
:0501DB00023280E22267
:100072000200F2E493A3F8E493A34003F68001F2B2
:1000820008DFF48029E493A3F85407240CC8C3338F
:10009200C4540F4420C8834004F456800146F6DF5E
:1000A200E4800B010204081020408090023AE47EB2
:1000B200019360BCA3FF543F30E509541FFEE49353
:1000C200A360010ECF54C025E060A840B8E493A31A
:1000D200FAE493A3F8E493A3C8C582C8CAC583CA45
:1000E200F0A3C8C582C8CAC583CADFE9DEE780BEFD
:0102400000BD
:10013B00BB010689828A83E0225002E722BBFE02C2
:09014B00E32289828A83E49322F5
:10015400EF4E6012EF60010EEDBB010B89828A83C2
:10016400F0A3DFFCDEFA2289F05007F709DFFCA9CF
:0C017400F022BBFEFCF309DFFCA9F02226
:00000001FF
