:030000000203D226
:0C03D200787FE4F6D8FD7581380204192C
:1006F100031D0000000315000000030B00000001B2
:080701000E000108000119FFC0
:0E07CB00E4FD7FA01207D97DFF7F800207D9D1
:10045E00E51AC3940A4078E4F51A1205BB8F1CE521
:10046E001CB40411E51B2401FFE433FE7C007D0364
:10047E0012022B8D1BE51CB40516E51BB40211E50B
:10048E00182401FFE433FE7C007D0312022B8D182D
:0B049E00E51C64087024E51BB4021F7D
:1004A900E4F534741D2534F8E4F674152534F8E4BC
:0F04B900F6740B2534F8E4F60534E534B403E4A7
:1004C800E51CB40910E4F511E511C4333354C0FD3B
:0604D8007FA01207D922EB
:100003007F8112062FEFC4540F75F00AA4FFC007B7
:100013007F8112062FEF540FFED0E02EF5097F8368
:1000230012062FEFC4540F75F00AA4FFC0077F8395
:1000330012062FEF540FFED0E02EF50A7F8512062D
:100043002FEFC4540F75F00AA4FFC0077F85120673
:0B0053002FEF540FFED0E02EF512221C
:10076000C3E5149464E5139400400CE4F513F51408
:080770001205F58E0F8F102217
:10057A00C3E510941EE50F94005025E50870218507
:10058A001E1F851617850C0D851D1E851516850BD4
:10059A000C85121D850A1585090B750801750E0152
:1005AA00C3E510941EE50F94004005E4F508F50E26
:0105BA00221E
:10071B00C3E510941EE50F94005009E511600575B3
:10072B0011018003E4F511E511C4333354C0FD7F8F
:05073B00A01207D92205
:1006C400E51B70055319FE8003431901E51BB401B2
:1006D400055319FD8003431902E51BB402055319A0
:0D06E400FB8003431904AD197F800207D984
:10028E00E51B704D752C38F52DF52EF52FF530AE8E
:10029E000FAF10FC7D6412022B7C007D0A12022B24
:1002AE0074212DF8E6F531AE0FAF107C007D0A12E9
:1002BE00022B7C007D0A12022B74212DF8E6F532FA
:1002CE00AE0FAF107C007D0A12022B74212D02039B
:1002DE00CDE51B64017053E51275F00A842421F8F4
:1002EE00E6F52CE51275F00A84742125F0F8E6F592
:1002FE002D752E40E50A75F00A842421F8E6F52FB7
:10030E00E50A75F00A84742125F0F8E6F5307531AA
:10031E0040E50975F00A842421F8E6F532E5097501
:10032E00F00A84742125F00203CDE51B64026003FC
:10033E000203D1752C7774222518F8E6F52D741D5D
:10034E002518F8E6702374152518F8E6701B740B43
:10035E002518F8E6701375334075324075314075C7
:10036E003040752F40752E4022741D2518F8E6FF7B
:10037E0075F00A842421F8E6F52EEF75F00A8474E0
:10038E002125F0F8E6F52F74152518F8E6FF75F01F
:10039E000A842421F8E6F530EF75F00A84742125DD
:1003AE00F0F8E6F531740B2518F8E6FF75F00A84BF
:1003BE002421F8E6F532EF75F00A84742125F0F861
:0403CE00E6F53322FB
:100740001207CB1207B97B327D3B7F171204DE12F2
:10075000028E12045E12076012000312071B80EF64
:0300630002052F64
:10052F00C0E0C0F0C083C082C0D075D000C000C092
:10053F0001C002C003C004C005C006C0070514E512
:10054F001470020513051A12069512057A1206C4C5
:10055F00D007D006D005D004D003D002D001D000F0
:0B056F00D0D0D082D083D0F0D0E0329A
:1007B900538EFB75D71875D6FC438E1043AF04D200
:0207C900AF225D
:0607E60000007F21DFFE90
:0107EC0022EA
:0D0709000B213F065B4F666D7D077F6F384B
:10069500E4FD7FC01207D9742C2520F8E6F4FD7F10
:1006A500E01207D9AF207401A807088002C333D828
:0E06B500FCFD7FC01207D9E520045407F52094
:0106C3002214
:0D07D9008D80E5A0541F4FF5A053A01F22F6
:0407160002370000A6
:10066300E4FF75B0F075C0FF20C4027F0420C2020E
:100673007F0820B5027F0C20B4027F1075B00FE411
:10068300F5C020B2010F20B1020F0F20B0030F0FEE
:010693000F57
:010694002243
:1005BB00E4FFFE120663E537702DE5381460121464
:1005CB00601E24027021EF601E75370075380180A4
:1005DB0016EF6009753700753802FE800AE4800358
:0905EB00EF7004F537F538AF0696
:0105F40022E4
:10077800E4F536D2901207E6C2901207E60536E590
:0607880036C3940840EDA9
:01078E002248
:1005F500120778E4F58DF58BD28E309103308FFAA2
:10060500C28E308F04C28F801CAF8DEFAD8BFCE4A2
:100615001201717B967A43798B783C120066120140
:09062500AA8E348F35AE34AF35D6
:01062E0022A9
:1007A600E4FEC297EF1392A3EFC313FFD2970EBED8
:0207B60008F049
:0107B800221E
:03078F0025F0FD55
:10079200C29300C29700D293001207A6AF051207B8
:0407A200A6C2932236
:10062F00E4FDC29300C29700D293001207A6E4FF25
:10063F00C297EDC313FD30A303430580D2970FBFBD
:10064F0008EEC29300C29700D29700C2A300D2A3B4
:03065F0000AF05E4
:010662002275
:1004DE00AC07AA05E4FD7F8E120792EB75F00A8435
:1004EE00C454F0FFEB75F00A84EF7F8012078FEA99
:1004FE0075F00A84C454F0FFEA75F00A84EF7F8227
:10050E0012078FEC75F00A84C454F0FFEC75F00AF4
:10051E0084EF25F0FD7F841207927D807F8E020787
:01052E00923A
:10006600EC4D6011E8497017ED33EC3304600DE494
:10007600FCFFFEFD22E933E8330470F80202161293
:1000860001E158046009E4CC248150062850090295
:10009600022028400302021DC0E0EB4A7044B980EA
:1000A60006D0E0FB02020CEF4E701CBD8008EBFF91
:1000B600EAFEE9FD80EBE98DF0A4FEE5F002014FD2
:1000C600E9CDF9EAFEEBFFEF89F0A4FCE5F0CE8975
:1000D600F0A42EFFE435F0CD89F0A42DFEE435F032
:1000E6008067EF4E7005BD80D780C3EF8BF0A4AC60
:1000F600F0EE8BF0A42CFCE435F0F8EF8AF0A42C9B
:10010600E5F038FCE433CB8DF0A42CFCE5F03BF8AD
:10011600EE8AF0A42CFCE5F038F8E433CF89F0A49D
:100126002CFCE5F038CF3400CE89F0A42FFFE5F0A3
:100136003EFEE433C98DF0A42EFEE5F039CD8AF0FB
:10014600A42FFFE5F03EFEE43DFD33D0E0FB500773
:100156000BBB000F020220EC2CFCEF33FFEE33FE4C
:06016600ED33FD0201F87B
:10016C0075F020800E75F010800575F0087D007E0E
:10017C00007F003392D530D503120280EC3340104F
:10018C00EF33FFEE33FEED33FDEC33FCD5F0ED2217
:0E019C00E5F0247EA2D513CC92E7CDCEFF2253
:1001AA00EDD2E7CD33EC3392D524814006E4FFFE4D
:1001BA00FDFC22FCE4CFCECDCC24E0501174FF80AC
:1001CA00EDC3CC13CCCD13CDCE13CECF13CF047049
:0701DA00F030D5DE020280C7
:1001E100E9D2E7C933E833F892D5EDD2E7CD33EC64
:0701F10033FC5002B2D522DD
:1001F800EC30E7100FBF000C0EBE00080DBD000468
:100208000BEB6014A2D5EB13FCED92E7FD2274FF13
:10021800FCFDFEFF22E480F8A2D574FF13FC7D806C
:03022800E480EF80
:1003DE00020740E493A3F8E493A34003F68001F2EE
:1003EE0008DFF48029E493A3F85407240CC8C33320
:1003FE00C4540F4420C8834004F456800146F6DFEF
:10040E00E4800B01020408102040809006F1E47E87
:10041E00019360BCA3FF543F30E509541FFEE493E3
:10042E00A360010ECF54C025E060A840B8E493A3AA
:10043E00FAE493A3F8E493A3C8C582C8CAC583CAD5
:10044E00F0A3C8C582C8CAC583CADFE9DEE780BE8D
:01071A0000DE
:10022B00BC000BBE0029EF8DF084FFADF022E4CCB7
:10023B00F875F008EF2FFFEE33FEEC33FCEE9DEC80
:10024B00984005FCEE9DFE0FD5F0E9E4CEFD22EDC6
:10025B00F8F5F0EE8420D21CFEADF075F008EF2F10
:10026B00FFED33FD4007985006D5F0F222C398FD01
:05027B000FD5F0EA229E
:0E028000C3E49FFFE49EFEE49DFDE49CFC228F
:00000001FF
