:0300000002049067
:0C049000787FE4F6D8FD7581380204D7AF
:10072A00031D0000000314000000030B0000000179
:05073A0008000119FF99
:0E07D900E4FD7FA01207E77DFF7F800207E7A7
:10076E00C3E5139464E5129400400CE4F512F513FE
:08077E0012062E8E0E8F0F22D1
:1003F300E51AC3940A500302048FE4F51A1205F4B4
:100403008F1C12069C8F17E51CB40411E51B2401F5
:10041300FFE433FE7C007D0312022B8D1BE51CB42D
:100423000516E51BB40211E5182401FFE433FE7C35
:10043300007D0312022B8D18E51C64087024E51B54
:03044300B4021FE1
:10044600E4F534741D2534F8E4F674142534F8E420
:0F045600F6740B2534F8E4F60534E534B403E40A
:10046500E517B40905E4F5108013C3E50F941EE5FF
:100475000E940050057510018003E4F510E510C4D5
:0B048500333354C0FD7FA01207E722B4
:100003007F81120668EFC4540F75F00AA4FFC0077E
:100013007F81120668EF540FFED0E02EF5097F832F
:10002300120668EFC4540F75F00AA4FFC0077F835C
:10003300120668EF540FFED0E02EF50A7F851206F4
:1000430068EFC4540F75F00AA4FFC0077F8512063A
:0B00530068EF540FFED0E02EF51122E4
:1005B800C3E50F941EE50E94005022E508701E85D1
:1005C8001E1F851516850C0D851D1E851415850B9A
:1005D8000C85111D850A1485090B750801C3E50FE3
:0B05E800941EE50E94004003E4F508AB
:0105F30022E5
:1006FD00E51B70055319FE8003431901E51BB40179
:10070D00055319FD8003431902E51BB40205531966
:0D071D00FB8003431904AD197F800207E73C
:10028E00E51B706E752C38F52DF52EF52FF530C358
:10029E00E50F9464E50E9400401BAE0EAF0F7C008C
:1002AE007D6412022B7C007D0A12022B74212DF824
:1002BE00E6F5318003E4F531C3E50F940AE50E94BB
:1002CE0000401BAE0EAF0F7C007D0A12022B7C008D
:1002DE007D0A12022B74212DF8E6F5328003E4F527
:1002EE0032AE0EAF0F7C007D0A12022B74212D024E
:1002FE0003EEE51B64017053E51175F00A842421A9
:10030E00F8E6F52CE51175F00A84742125F0F8E66F
:10031E00F52D752E40E50A75F00A842421F8E6F5D0
:10032E002FE50A75F00A84742125F0F8E6F530758C
:10033E003140E50975F00A842421F8E6F532E50925
:10034E0075F00A84742125F00203EEE51B64026049
:10035E00030203F2752C7774222518F8E6F52D7436
:10036E001D2518F8E6702374142518F8E6701B7412
:10037E000B2518F8E6701375334075324075314011
:10038E00753040752F40752E4022741D2518F8E6E5
:10039E00FF75F00A842421F8E6F52EEF75F00A8435
:1003AE00742125F0F8E6F52F74142518F8E6FF757C
:1003BE00F00A842421F8E6F530EF75F00A847421F2
:1003CE0025F0F8E6F531740B2518F8E6FF75F00AFE
:1003DE00842421F8E6F532EF75F00A84742125F0B5
:0503EE00F8E6F53322E2
:100751001207D91207C77B327D3B7F1712051C1286
:0D076100028E1203F312076E12000380F2E5
:0300630002056D26
:10056D00C0E0C0F0C083C082C0D075D000C000C054
:10057D0001C002C003C004C005C006C0070513E5D5
:10058D001370020512051A1206CE1205B81206FDD9
:10059D00D007D006D005D004D003D002D001D000B2
:0B05AD00D0D0D082D083D0F0D0E0325C
:1007C700538EFB75D71875D6FC438E1043AF04D2F2
:0207D700AF224F
:0607F40000007F21DFFE82
:0107FA0022DC
:0D073F000B213F065B4F666D7D077F6F3815
:1006CE00E4FD7FC01207E7742C2520F8E6F4FD7FC9
:1006DE00E01207E7AF207401A807088002C333D8E1
:0E06EE00FCFD7FC01207E7E520045407F5204D
:0106FC0022DB
:0D07E7008D80E5A0541F4FF5A053A01F22E8
:04074C000237000070
:10069C00E4FF75B0F075C0FF20C4027F0420C202D5
:1006AC007F0820B5027F0C20B4027F1075B00FE4D8
:1006BC00F5C020B2010F20B1020F0F20B0030F0FB5
:0106CC000F1E
:0106CD00220A
:1005F400E4FFFE12069CE537702DE53814601214F2
:10060400601E24027021EF601E753700753801806A
:1006140016EF6009753700753802FE800AE480031E
:09062400EF7004F537F538AF065C
:01062D0022AA
:10078600E4F536D2901207F4C2901207F40536E566
:0607960036C3940840ED9B
:01079C00223A
:10062E00120786E4F58DF58BD28E309103308FFA5A
:10063E00C28E308F04C28F801CAF8DEFAD8BFCE469
:10064E001201717B967A43798B783C120066120107
:09065E00AA8E348F35AE34AF359D
:010667002270
:1007B400E4FEC297EF1392A3EFC313FFD2970EBECA
:0207C40008F03B
:0107C6002210
:03079D0025F0FD47
:1007A000C29300C29700D293001207B4AF0512079C
:0407B000B4C293221A
:10066800E4FDC29300C29700D293001207B4E4FFDE
:10067800C297EDC313FD30A303430580D2970FBF84
:1006880008EEC29300C29700D29700C2A300D2A37B
:0306980000AF05AB
:01069B00223C
:10051C00AC07AA05E4FD7F8E1207A0EB75F00A84E8
:10052C00C454F0FFEB75F00A84EF7F8012079DEA4C
:10053C0075F00A84C454F0FFEA75F00A84EF7F82E8
:10054C0012079DEC75F00A84C454F0FFEC75F00AA8
:10055C0084EF25F0FD7F841207A07D807F8E02073B
:01056C00A0EE
:10006600EC4D6011E8497017ED33EC3304600DE494
:10007600FCFFFEFD22E933E8330470F80202161293
:1000860001E158046009E4CC248150062850090295
:10009600022028400302021DC0E0EB4A7044B980EA
:1000A60006D0E0FB02020CEF4E701CBD8008EBFF91
:1000B600EAFEE9FD80EBE98DF0A4FEE5F002014FD2
:1000C600E9CDF9EAFEEBFFEF89F0A4FCE5F0CE8975
:1000D600F0A42EFFE435F0CD89F0A42DFEE435F032
:1000E6008067EF4E7005BD80D780C3EF8BF0A4AC60
:1000F600F0EE8BF0A42CFCE435F0F8EF8AF0A42C9B
:10010600E5F038FCE433CB8DF0A42CFCE5F03BF8AD
:10011600EE8AF0A42CFCE5F038F8E433CF89F0A49D
:100126002CFCE5F038CF3400CE89F0A42FFFE5F0A3
:100136003EFEE433C98DF0A42EFEE5F039CD8AF0FB
:10014600A42FFFE5F03EFEE43DFD33D0E0FB500773
:100156000BBB000F020220EC2CFCEF33FFEE33FE4C
:06016600ED33FD0201F87B
:10016C0075F020800E75F010800575F0087D007E0E
:10017C00007F003392D530D503120280EC3340104F
:10018C00EF33FFEE33FEED33FDEC33FCD5F0ED2217
:0E019C00E5F0247EA2D513CC92E7CDCEFF2253
:1001AA00EDD2E7CD33EC3392D524814006E4FFFE4D
:1001BA00FDFC22FCE4CFCECDCC24E0501174FF80AC
:1001CA00EDC3CC13CCCD13CDCE13CECF13CF047049
:0701DA00F030D5DE020280C7
:1001E100E9D2E7C933E833F892D5EDD2E7CD33EC64
:0701F10033FC5002B2D522DD
:1001F800EC30E7100FBF000C0EBE00080DBD000468
:100208000BEB6014A2D5EB13FCED92E7FD2274FF13
:10021800FCFDFEFF22E480F8A2D574FF13FC7D806C
:03022800E480EF80
:10049C00020751E493A3F8E493A34003F68001F21E
:1004AC0008DFF48029E493A3F85407240CC8C33361
:1004BC00C4540F4420C8834004F456800146F6DF30
:1004CC00E4800B010204081020408090072AE47E8F
:1004DC00019360BCA3FF543F30E509541FFEE49325
:1004EC00A360010ECF54C025E060A840B8E493A3EC
:1004FC00FAE493A3F8E493A3C8C582C8CAC583CA17
:10050C00F0A3C8C582C8CAC583CADFE9DEE780BECE
:0107500000A8
:10022B00BC000BBE0029EF8DF084FFADF022E4CCB7
:10023B00F875F008EF2FFFEE33FEEC33FCEE9DEC80
:10024B00984005FCEE9DFE0FD5F0E9E4CEFD22EDC6
:10025B00F8F5F0EE8420D21CFEADF075F008EF2F10
:10026B00FFED33FD4007985006D5F0F222C398FD01
:05027B000FD5F0EA229E
:0E028000C3E49FFFE49EFEE49DFDE49CFC228F
:00000001FF
