:0300000002006695
:0C006600787FE4F6D8FD7581220200AD21
:10016A0010093F065B4F666D7D077F6F003E737611
:05017A007938010800C6
:1001A800E4FD7FA01201B97519FFAD197F80020126
:0101B800B98D
:10019600538EFB75D71875D6FC438E1043AF04D229
:0201A600AF2286
:1001530085161A85171B85181C85181D85091EE42D
:07016300F51FF520F5212234
:0B0058001201A812019612015380FB58
:1000F200E4FD7FC01201B9741A2508F8E6F4FD7F09
:10010200E01201B9AF087401A807088002C333D80E
:0E011200FCFD7FC01201B9E508045407F50892
:0101200022BC
:0300630002000395
:10000300C0E0C0F0C083C082C0D075D000C000C0C3
:1000130001C002C003C004C005C006C0071200F23D
:10002300D007D006D005D004D003D002D001D00031
:0B003300D0D0D082D083D0F0D0E032DB
:10003E00E4FDFCC3ED9FEC9E500F790C7BA9DBFE1B
:09004E00D9FC0DBD00010C80EA93
:010057002286
:10018000E4FDFCC3ED9FEC9E500B000000000DBD94
:0501900000010C80EEEF
:010195002247
:10013B00E4FDFCC3ED9FEC9E500D00007B1BDBFE32
:07014B000DBD00010C80EC6A
:01015200228A
:10012100E4FDFCC3ED9FEC9E500F79027B27DBFEC3
:09013100D9FC0DBD00010C80EAAF
:01013A0022A2
:0801B9008D808FA0E4F5A02267
:10007200020058E493A3F8E493A34003F68001F24C
:1000820008DFF48029E493A3F85407240CC8C3338F
:10009200C4540F4420C8834004F456800146F6DF5E
:1000A200E4800B010204081020408090016AE47E83
:1000B200019360BCA3FF543F30E509541FFEE49353
:1000C200A360010ECF54C025E060A840B8E493A31A
:1000D200FAE493A3F8E493A3C8C582C8CAC583CA45
:1000E200F0A3C8C582C8CAC583CADFE9DEE780BEFD
:01017F00007F
:00000001FF
