:03000000020320D8
:0C032000787FE4F6D8FD75813B0203678E
:03051C00010800D3
:10056100E4FD7FA01205BA7DFF7F801205BAE4FD8C
:050571007FC00205BA85
:1003AC00E50EC394024064E4F50E7F411204DB7F3A
:1003BC00411204DB8F117F431204DB7F431204DBF9
:1003CC008F09EF75F064A4FFAEF07C007D33120250
:1003DC00BD8E0B8F0CAC09E41202087B0A7AD7791C
:1003EC0023784012016112023C8F0FAC09E4120217
:1003FC00087B667A66794C7842120161E4FBFA79E3
:0C040C0080783F12006D12023C8F0A2223
:10057600E50DC3940A400AE4F50DAF080508120517
:010586004B29
:010587002251
:10041800AE0BAF0C7C007D641202BD74222FF8E68F
:100428004480F534AE0BAF0C7C007D0A1202BD7C13
:10043800007D0A1202BD74222DF8E6F535AE0BAF29
:100448000C7C007D0A1202BD74222DF8E6F536E414
:10045800F537E50F75F00A842422F8E6F538E50F3C
:1004680075F00A84742225F0F8E6F539E4F53A7453
:0804780022250AF8E6F53B22FB
:10059A001205611205881204181203AC120576803E
:0105AA00F55B
:0300630002000395
:10000300C0E0C0F0C083C082C0D075D000C000C0C3
:1000130001C002C003C004C005C006C007050D052A
:100023000E120480D007D006D005D004D003D0022E
:0F003300D001D000D0D0D082D083D0F0D0E03236
:10058800538EFB75D71875D6FC438E1043AF04D233
:02059800AF2290
:0405C700D2A07F053A
:0805CB0000AE071FEE70F922DB
:0F05AB00D2A11205C7C2A17F051205CBC2A022A3
:0C05D300C2A11205C7D2A17F050205CB12
:10053400C2A0A20092A17F051205CB1205C7C2A0DA
:07054400D2A17F050205CBE7
:0A050100AB071205AB7F901204AFA8
:10050B001205C7A2A19200C2A07F051205CBA200C3
:01051B0022BD
:0204AF00AD0797
:1004B100E4FCC2A07F051205CBED30E704D2A18098
:1004C10002C2A17F051205CBD2A0ED25E0FD7F057B
:0904D1001205CB0CBC08DBC2A033
:0104DA0022FF
:10004200E4FC1205C7ED25E0FD30A103430501C222
:0C005200A07F051205CB0CBC08E8AF0530
:01005E00227F
:1004DB00120501AF031204AF12050B1205AB7F918E
:1004EB001204AF12050B120042AD07D200120534F5
:0504FB001205D3AF055E
:0105000022D8
:10054B001205017F401204AF12050BAF031204AF6B
:06055B0012050B0205D39E
:0D05BA008D80E5A0541F4FF5A053A01F2217
:10051F0012223F065B4F666D7D077F6F777C395EDA
:04052F007971763830
:10048000E4FD7FC01205BA74342521F8E6F4FD7F3F
:10049000E01205BAAF217401A807088002C333D85F
:0E04A000FCFD7FC01205BAE521045407F521CA
:0104AE00222B
:100066000202A8E86480F8E933E83360110460F01E
:10007600ED33EC337009E8FCE9FDEAFEEBFF220400
:1000860060DED3EB9FEA9EE99DE8C2E78CF0C2F7FB
:1000960095F0400CE8CCF8E9CDF9EACEFAEBCFFBC7
:1000A60012027385D0F05804700320D5B3E80470AB
:1000B600075002B2D50202B292D5EC0460F7E4CC46
:1000C600C0E0C398F8603B94186008400DD0E0FB90
:1000D60002028AE4FBFAC9FC8028E830E406E4C997
:1000E600FBE4CAFCE830E305E4C9CACBFCE85407E4
:1000F6006010F8C3E913F9EA13FAEB13FBEC13FCEF
:10010600D8F130F52FC3E49CFCEF9BFFEE9AFEED91
:1001160099FDD0E0FBEF4E4D4C701222DB0302023C
:10012600AFEC2CFCEF33FFEE33FEED33FDED30E7A5
:10013600EB02028AEF2BFFEE3AFEED39FDD0E0FB33
:1001460050130BBB00030202B2ED13FDEE13FEEFDC
:0801560013FFEC13FC02028A06
:10015E000202B2EC5D046005E8590470030202A8C5
:10016E00120273580460F6EC4860F2EC7004FDFE67
:10017E00FF22C860DB2481C85009C3986002500674
:10018E000202AF9850CAF582E9294B4A7005AB823C
:10019E0002029E75F0007C1A7880C3EF9BEE9AEDFA
:1001AE0099400DC3EF9BFFEE9AFEED99FDE842F0EC
:1001BE00DC23ACF0D0E0FFD0E0FED0E0FDAB82203F
:1001CE00E7101BEB60BAEC2CFCEF33FFEE33FEEDC9
:1001DE0033FD02028AE803F830E705C0F075F0003F
:1001EE00EF2FFFEE33FEED33FD40B830E7C280AAAD
:1001FE0075F020800E75F010800575F0087D007E7C
:10020E00007F003392D530D503120312EC33401029
:10021E00EF33FFEE33FEED33FDEC33FCD5F0ED2284
:0E022E00E5F0247EA2D513CC92E7CDCEFF22C0
:10023C00EDD2E7CD33EC3392D524814006E4FFFEBA
:10024C00FDFC22FCE4CFCECDCC24E0501174FF8019
:10025C00EDC3CC13CCCD13CDCE13CECF13CF0470B6
:07026C00F030D5DE020312A1
:10027300E9D2E7C933E833F892D5EDD2E7CD33ECD1
:0702830033FC5002B2D5224A
:10028A00EC30E7100FBF000C0EBE00080DBD0004D5
:10029A000BEB6014A2D5EB13FCED92E7FD2274FF81
:1002AA00FCFDFEFF22E480F8A2D574FF13FC7D80DA
:0302BA00E480EFEE
:10032C0002059AE493A3F8E493A34003F68001F248
:10033C0008DFF48029E493A3F85407240CC8C333D2
:10034C00C4540F4420C8834004F456800146F6DFA1
:10035C00E4800B010204081020408090051CE47E10
:10036C00019360BCA3FF543F30E509541FFEE49396
:10037C00A360010ECF54C025E060A840B8E493A35D
:10038C00FAE493A3F8E493A3C8C582C8CAC583CA88
:10039C00F0A3C8C582C8CAC583CADFE9DEE780BE40
:0105330000C7
:1002BD00BC000BBE0029EF8DF084FFADF022E4CC25
:1002CD00F875F008EF2FFFEE33FEEC33FCEE9DECEE
:1002DD00984005FCEE9DFE0FD5F0E9E4CEFD22ED34
:1002ED00F8F5F0EE8420D21CFEADF075F008EF2F7E
:1002FD00FFED33FD4007985006D5F0F222C398FD6F
:05030D000FD5F0EA220B
:0E031200C3E49FFFE49EFEE49DFDE49CFC22FC
:00000001FF
